{
  "_format": "hh-sol-artifact-1",
  "contractName": "election",
  "sourceName": "contracts/Election.sol",
  "abi": [
    {
      "inputs": [],
      "stateMutability": "nonpayable",
      "type": "constructor"
    },
    {
      "inputs": [
        {
          "internalType": "string",
          "name": "name",
          "type": "string"
        }
      ],
      "name": "addCandidate",
      "outputs": [],
      "stateMutability": "nonpayable",
      "type": "function"
    },
    {
      "inputs": [
        {
          "internalType": "uint256",
          "name": "",
          "type": "uint256"
        }
      ],
      "name": "candidates",
      "outputs": [
        {
          "internalType": "uint256",
          "name": "id",
          "type": "uint256"
        },
        {
          "internalType": "string",
          "name": "name",
          "type": "string"
        },
        {
          "internalType": "uint256",
          "name": "voteCount",
          "type": "uint256"
        }
      ],
      "stateMutability": "view",
      "type": "function"
    },
    {
      "inputs": [
        {
          "internalType": "uint256",
          "name": "candidateId",
          "type": "uint256"
        }
      ],
      "name": "getCandidateById",
      "outputs": [
        {
          "internalType": "string",
          "name": "name",
          "type": "string"
        },
        {
          "internalType": "uint256",
          "name": "voteCount",
          "type": "uint256"
        }
      ],
      "stateMutability": "view",
      "type": "function"
    },
    {
      "inputs": [],
      "name": "getTotalCandidates",
      "outputs": [
        {
          "internalType": "uint256",
          "name": "",
          "type": "uint256"
        }
      ],
      "stateMutability": "view",
      "type": "function"
    },
    {
      "inputs": [],
      "name": "hasVoted",
      "outputs": [
        {
          "internalType": "bool",
          "name": "",
          "type": "bool"
        }
      ],
      "stateMutability": "view",
      "type": "function"
    },
    {
      "inputs": [],
      "name": "owner",
      "outputs": [
        {
          "internalType": "address",
          "name": "",
          "type": "address"
        }
      ],
      "stateMutability": "view",
      "type": "function"
    },
    {
      "inputs": [],
      "name": "totalCandidates",
      "outputs": [
        {
          "internalType": "uint256",
          "name": "",
          "type": "uint256"
        }
      ],
      "stateMutability": "view",
      "type": "function"
    },
    {
      "inputs": [
        {
          "internalType": "uint256",
          "name": "candidateId",
          "type": "uint256"
        }
      ],
      "name": "vote",
      "outputs": [],
      "stateMutability": "nonpayable",
      "type": "function"
    },
    {
      "inputs": [
        {
          "internalType": "address",
          "name": "",
          "type": "address"
        }
      ],
      "name": "voters",
      "outputs": [
        {
          "internalType": "bool",
          "name": "hasVoted",
          "type": "bool"
        }
      ],
      "stateMutability": "view",
      "type": "function"
    }
  ],
  "bytecode": "0x608060405234801561001057600080fd5b50336000806101000a81548173ffffffffffffffffffffffffffffffffffffffff021916908373ffffffffffffffffffffffffffffffffffffffff160217905550610fe4806100606000396000f3fe608060405234801561001057600080fd5b50600436106100935760003560e01c8063462e91ec11610066578063462e91ec14610122578063648213381461013e5780638da5cb5b1461015c57806395f850221461017a578063a3ec138d146101ab57610093565b80630121b93f146100985780630deb56ab146100b45780633477ee2e146100d25780633866965c14610104575b600080fd5b6100b260048036038101906100ad9190610731565b6101db565b005b6100bc610346565b6040516100c9919061076d565b60405180910390f35b6100ec60048036038101906100e79190610731565b610350565b6040516100fb93929190610818565b60405180910390f35b61010c610402565b604051610119919061076d565b60405180910390f35b61013c6004803603810190610137919061098b565b610408565b005b610146610511565b60405161015391906109ef565b60405180910390f35b610164610568565b6040516101719190610a4b565b60405180910390f35b610194600480360381019061018f9190610731565b61058c565b6040516101a2929190610a66565b60405180910390f35b6101c560048036038101906101c09190610ac2565b6106bc565b6040516101d291906109ef565b60405180910390f35b6000811180156101ed57506003548111155b61022c576040517f08c379a000000000000000000000000000000000000000000000000000000000815260040161022390610b3b565b60405180910390fd5b600260003373ffffffffffffffffffffffffffffffffffffffff1673ffffffffffffffffffffffffffffffffffffffff16815260200190815260200160002060000160009054906101000a900460ff16156102bc576040517f08c379a00000000000000000000000000000000000000000000000000000000081526004016102b390610ba7565b60405180910390fd5b6001600082815260200190815260200160002060020160008154809291906102e390610bf6565b91905055506001600260003373ffffffffffffffffffffffffffffffffffffffff1673ffffffffffffffffffffffffffffffffffffffff16815260200190815260200160002060000160006101000a81548160ff02191690831515021790555050565b6000600354905090565b600160205280600052604060002060009150905080600001549080600101805461037990610c6d565b80601f01602080910402602001604051908101604052809291908181526020018280546103a590610c6d565b80156103f25780601f106103c7576101008083540402835291602001916103f2565b820191906000526020600020905b8154815290600101906020018083116103d557829003601f168201915b5050505050908060020154905083565b60035481565b60008054906101000a900473ffffffffffffffffffffffffffffffffffffffff1673ffffffffffffffffffffffffffffffffffffffff163373ffffffffffffffffffffffffffffffffffffffff1614610496576040517f08c379a000000000000000000000000000000000000000000000000000000000815260040161048d90610d10565b60405180910390fd5b600360008154809291906104a990610bf6565b91905055506040518060600160405280600354815260200182815260200160008152506001600060035481526020019081526020016000206000820151816000015560208201518160010190816105009190610edc565b506040820151816002015590505050565b6000600260003373ffffffffffffffffffffffffffffffffffffffff1673ffffffffffffffffffffffffffffffffffffffff16815260200190815260200160002060000160009054906101000a900460ff16905090565b60008054906101000a900473ffffffffffffffffffffffffffffffffffffffff1681565b6060600080831180156105a157506003548311155b6105e0576040517f08c379a00000000000000000000000000000000000000000000000000000000081526004016105d790610b3b565b60405180910390fd5b6000600160008581526020019081526020016000206040518060600160405290816000820154815260200160018201805461061a90610c6d565b80601f016020809104026020016040519081016040528092919081815260200182805461064690610c6d565b80156106935780601f1061066857610100808354040283529160200191610693565b820191906000526020600020905b81548152906001019060200180831161067657829003601f168201915b505050505081526020016002820154815250509050806020015192508060400151915050915091565b60026020528060005260406000206000915090508060000160009054906101000a900460ff16905081565b6000604051905090565b600080fd5b600080fd5b6000819050919050565b61070e816106fb565b811461071957600080fd5b50565b60008135905061072b81610705565b92915050565b600060208284031215610747576107466106f1565b5b60006107558482850161071c565b91505092915050565b610767816106fb565b82525050565b6000602082019050610782600083018461075e565b92915050565b600081519050919050565b600082825260208201905092915050565b60005b838110156107c25780820151818401526020810190506107a7565b60008484015250505050565b6000601f19601f8301169050919050565b60006107ea82610788565b6107f48185610793565b93506108048185602086016107a4565b61080d816107ce565b840191505092915050565b600060608201905061082d600083018661075e565b818103602083015261083f81856107df565b905061084e604083018461075e565b949350505050565b600080fd5b600080fd5b7f4e487b7100000000000000000000000000000000000000000000000000000000600052604160045260246000fd5b610898826107ce565b810181811067ffffffffffffffff821117156108b7576108b6610860565b5b80604052505050565b60006108ca6106e7565b90506108d6828261088f565b919050565b600067ffffffffffffffff8211156108f6576108f5610860565b5b6108ff826107ce565b9050602081019050919050565b82818337600083830152505050565b600061092e610929846108db565b6108c0565b90508281526020810184848401111561094a5761094961085b565b5b61095584828561090c565b509392505050565b600082601f83011261097257610971610856565b5b813561098284826020860161091b565b91505092915050565b6000602082840312156109a1576109a06106f1565b5b600082013567ffffffffffffffff8111156109bf576109be6106f6565b5b6109cb8482850161095d565b91505092915050565b60008115159050919050565b6109e9816109d4565b82525050565b6000602082019050610a0460008301846109e0565b92915050565b600073ffffffffffffffffffffffffffffffffffffffff82169050919050565b6000610a3582610a0a565b9050919050565b610a4581610a2a565b82525050565b6000602082019050610a606000830184610a3c565b92915050565b60006040820190508181036000830152610a8081856107df565b9050610a8f602083018461075e565b9392505050565b610a9f81610a2a565b8114610aaa57600080fd5b50565b600081359050610abc81610a96565b92915050565b600060208284031215610ad857610ad76106f1565b5b6000610ae684828501610aad565b91505092915050565b7f496e76616c69642063616e646964617465204944000000000000000000000000600082015250565b6000610b25601483610793565b9150610b3082610aef565b602082019050919050565b60006020820190508181036000830152610b5481610b18565b9050919050565b7f596f75206861766520616c726561647920766f74656400000000000000000000600082015250565b6000610b91601683610793565b9150610b9c82610b5b565b602082019050919050565b60006020820190508181036000830152610bc081610b84565b9050919050565b7f4e487b7100000000000000000000000000000000000000000000000000000000600052601160045260246000fd5b6000610c01826106fb565b91507fffffffffffffffffffffffffffffffffffffffffffffffffffffffffffffffff8203610c3357610c32610bc7565b5b600182019050919050565b7f4e487b7100000000000000000000000000000000000000000000000000000000600052602260045260246000fd5b60006002820490506001821680610c8557607f821691505b602082108103610c9857610c97610c3e565b5b50919050565b7f4f6e6c7920746865206f776e65722063616e2063616c6c20746869732066756e60008201527f6374696f6e000000000000000000000000000000000000000000000000000000602082015250565b6000610cfa602583610793565b9150610d0582610c9e565b604082019050919050565b60006020820190508181036000830152610d2981610ced565b9050919050565b60008190508160005260206000209050919050565b60006020601f8301049050919050565b600082821b905092915050565b600060088302610d927fffffffffffffffffffffffffffffffffffffffffffffffffffffffffffffffff82610d55565b610d9c8683610d55565b95508019841693508086168417925050509392505050565b6000819050919050565b6000610dd9610dd4610dcf846106fb565b610db4565b6106fb565b9050919050565b6000819050919050565b610df383610dbe565b610e07610dff82610de0565b848454610d62565b825550505050565b600090565b610e1c610e0f565b610e27818484610dea565b505050565b5b81811015610e4b57610e40600082610e14565b600181019050610e2d565b5050565b601f821115610e9057610e6181610d30565b610e6a84610d45565b81016020851015610e79578190505b610e8d610e8585610d45565b830182610e2c565b50505b505050565b600082821c905092915050565b6000610eb360001984600802610e95565b1980831691505092915050565b6000610ecc8383610ea2565b9150826002028217905092915050565b610ee582610788565b67ffffffffffffffff811115610efe57610efd610860565b5b610f088254610c6d565b610f13828285610e4f565b600060209050601f831160018114610f465760008415610f34578287015190505b610f3e8582610ec0565b865550610fa6565b601f198416610f5486610d30565b60005b82811015610f7c57848901518255600182019150602085019450602081019050610f57565b86831015610f995784890151610f95601f891682610ea2565b8355505b6001600288020188555050505b50505050505056fea2646970667358221220c20d5ee3722635785be0427d86c104001f5059a2da55ce03a927d4704474610364736f6c63430008130033",
  "linkReferences": {},
  "deployedLinkReferences": {}
}